:020000040800F2
:1000000020280020D90100085B220008551F0008A5
:1000100059220008170700082D29000800000000D9
:100020000000000000000000000000005F22000847
:100030005B070008000000005D2200086122000844
:10004000F3010008F3010008F3010008F3010008C0
:10005000F3010008F30100085D07000863070008CA
:10006000690700086F070008F3010008F3010008A2
:10007000F3010008F301000819070008250700082C
:10008000F3010008F3010008F3010008F301000880
:10009000F3010008F3010008F3010008F301000870
:1000A000F3010008F3010008F3010008F301000860
:1000B000F3010008F3010008F3010008F301000850
:1000C000F3010008F3010008F3010008F301000840
:1000D000F301000821290008F3010008F3010008DA
:1000E000F3010008F3010008F3010008F301000820
:1000F000F3010008F3010008F3010008F301000810
:10010000F3010008F3010008F3010008F3010008FF
:10011000F3010008F3010008F3010008F3010008EF
:10012000F3010008F3010008F3010008F3010008DF
:1001300000F002F800F040F80AA090E8000C8244B9
:100140008344AAF10107DA4501D100F035F8AFF296
:10015000090EBAE80F0013F0010F18BFFB1A43F0A5
:10016000010318470048000020480000103A24BF4F
:1001700078C878C1FAD8520724BF30C830C144BF0C
:1001800004680C607047000000230024002500264E
:10019000103A28BF78C1FBD8520728BF30C148BFEA
:1001A0000B6070471FB59DE8030000F07FF900F079
:1001B0004FF91FBD10B510BD00F02AFA1146FFF728
:1001C000F1FF03F0A5F800F048FA03B4FFF7F2FFDF
:1001D00003BC00F079FA000009488047094800474D
:1001E000FEE7FEE7FEE7FEE7FEE7FEE7FEE7FEE7E7
:1001F000FEE7FEE704480549054A064B7047000044
:10020000C922000831010008201000202028002009
:10021000202000202020002070B50D460646041F37
:1002200000F028F9D0F800C0C5B1E6B105F10B0027
:1002300020F00703AB423CBF002070BD206898420D
:1002400038BFDCF8042013D3C11A08292FD3E018D3
:1002500040F8041B236000F087F928E0304600F0E6
:1002600083F9002070BD2846BDE8704000F04DB90C
:10027000002A18BFA2423CBF94465268F8D3011925
:10028000914216D111680844984212D3C11A082924
:100290003CBF2060506808D35168E0184160216875
:1002A00012681144C91A01602360CCF80400201DB3
:1002B00070BD181F00F029F9050007D021680A1F3A
:1002C000211D00F069F8201D00F04EF9284670BD90
:1002D00010B5431C02E010F8011B71B18107FAD17F
:1002E0004FF0013202C88C1A8C4314EAC211F9D0C3
:1002F000C01A0A0603D0C01E10BDC01A10BD0A04E1
:1003000001D0801E10BD0902FCD0401E10BD032A82
:1003100040F2308010F0030C00F0158011F8013B22
:10032000BCF1020F624498BF11F801CB00F8013B09
:1003300038BF11F8013BA2F1040298BF00F801CBCD
:1003400038BF00F8013B11F0030300F02580083AA4
:10035000C0F0088051F8043B083A51F804CBA0E8FB
:100360000810F5E7121D5CBF51F8043B40F8043B50
:10037000AFF30080D20724BF11F8013B11F801CB85
:1003800048BF11F8012B24BF00F8013B00F801CB56
:1003900048BF00F8012B704710B5203AC0F00B8021
:1003A000B1E81850203AA0E81850B1E81850A0E879
:1003B0001850BFF4F5AF5FEA027C24BFB1E81850D3
:1003C000A0E8185044BF18C918C0BDE810405FEA43
:1003D000827C24BF51F8043B40F8043B08BF7047BF
:1003E000D20728BF31F8023B48BF11F8012B28BFC4
:1003F00020F8023B48BF00F8012B70474FF0000285
:1004000000B5134694469646203922BFA0E80C500A
:10041000A0E80C50B1F12001BFF4F7AF090728BFE5
:10042000A0E80C5048BF0CC05DF804EB890028BF61
:1004300040F8042B08BF704748BF20F8022B11F08A
:10044000804F18BF00F8012B704770477047704706
:1004500070B5064C7C44064D7D4403E02068204482
:100460008047241DAC42F9D170BD00002C4500002E
:100470002C45000000487047C80F002070477047A7
:100480007047704738B504460A4600206946AFF306
:100490000080002808BF38BD02460099204600F0C1
:1004A00096F8012038BD012000F0ABB8F8B5AFF3E5
:1004B0000080054600200C46102000BF0646A81903
:1004C000A0420DD9324669460020AFF300800700F4
:1004D00008BF00F096F80098A04218BF0546C4195E
:1004E000FFF7C8FF05600746F01D20F0070046191A
:1004F000284600F065F8B44208BFF8BDA21B31469B
:100500003868BDE8F84000F062B870B50646FFF7FD
:10051000B1FF056806F10B0020F00704B4429CBF50
:10052000002070BD2B466A68BAB11068A04210D393
:1005300004F1080188423CBF5068586007D35168F5
:10054000101941601168091B016058601460101D8A
:1005500070BD13465268002AE7D121462846FFF7AE
:1005600091FF0028DED170BD70B50446051FFFF76E
:1005700081FF0068002C14BF446870BD002C18BFB8
:10058000AC423CBF20466468F8D301680A18AA420E
:1005900018BF456003D12A680546114401602868E8
:1005A0004119A1421CBF6C6070BD6168696021681F
:1005B0000844286070BD000000487047C00F00204C
:1005C00000210160C0E90110704710207047034608
:1005D00040688C46002818BF88423CBF03464068EC
:1005E000F8D318681844884207D00CF1030020F0B3
:1005F0000700001D411A521A0146081D0A60FFF744
:10060000B3BF10B500F038F8BDE8104000F02EB8C8
:100610007546FFF7D1FFAE4605006946534620F008
:100620000700854618B020B5FFF7E4FDBDE820407F
:100630004FF000064FF000074FF000084FF0000B9E
:1006400021F00701AC46ACE8C009ACE8C009ACE851
:10065000C009ACE8C0098D46704710B50446AFF339
:1006600000802046BDE81040FFF7AFBD002801D054
:1006700000F02AB87047000010B5012805D000210D
:1006800003A000F028F8012010BD09A1F8E7000040
:1006900053494752544D454D3A204F7574206F666B
:1006A0002068656170206D656D6F727900000000D3
:1006B0003A2048656170206D656D6F727920636FB7
:1006C000727275707465640001491820ABBEFEE754
:1006D00026000200704770B505460C460A2000E06F
:1006E0006D1C00F011F835B128780028F8D102E02F
:1006F000641C00F009F814B120780028F8D1BDE896
:1007000070400A20AFF3008008B569468DF80000FC
:100710000320ABBE08BDFEE7014800F0E9B80000C9
:10072000D4010020014800F0E3B80000900100204F
:1007300030B590F840500124AC40C56B6C60046843
:1007400063604368102B036803D099600068C2603F
:1007500030BD9A600068C16030BD7047012000F074
:1007600075BA022000F072BA042000F06FBA0820B7
:1007700000F06CBA72B6FEE710B590F821100022B6
:10078000022905D00421816380F82020012010BDBA
:1007900001680B6823F00E030B6001680B6823F0FF
:1007A00001030B6090F84030C46B012101FA03F3A0
:1007B000636080F8211080F82020104610BD0000F2
:1007C0002DE9F05F90F821100024022903D00421C4
:1007D0008163012485E001680A6822F00E020A6044
:1007E00001680A6822F001020A603F4E3E4FB215CE
:1007F000DFF8F4C0DFF8F090DFF8ECA0DFF8E8B045
:10080000DFF8E4E00168783F13011502ACF1640CF5
:10081000A9F15009AAF13C0AABF1280BAEF1140E74
:100820004FF48018B14227D9B9420ED0614512D099
:1008300049451DD0514518D0594518D0714501D1B1
:10084000424615E0294EB14201D1012210E0274E67
:100850001436B14201D110220AE0244E2836B142AA
:1008600006D0224A3C32914201D11A4600E02A4683
:100870001E49091F0A602BE0B94213D0614517D009
:10088000494522D051451DD059451DD0714501D152
:1008900042461AE0B14202D14FF0807215E0134E89
:1008A000B14201D1012210E0104E1436B14201D103
:1008B00010220AE00D4E2836B14206D00B4A3C32D7
:1008C000914201D11A4600E02A46074980394A6020
:1008D000012180F82110002180F82010416B01B126
:1008E00088472046BDE8F09F80000240080402408F
:1008F0002DE9F05FC16B0A6801680B68046C4FF06A
:10090000040808FA04F8844D844E854FDFF814C2B9
:10091000DFF81492DFF814A2DFF814B2DFF814E263
:1009200018EA020F65D05FEA437862D50A6892063A
:1009300003D40A6822F004020A60DFF8F0814FF461
:100940008062016808F1140813011402414524D99A
:10095000A9420DD0B1420FD0B9421AD0614515D08D
:10096000494515D0514501D1120312E0594501D135
:1009700004220EE0714501D140220AE06D4D14358C
:10098000A94206D06B4A2832914201D11A4600E0B2
:1009900022466749091F0A6029E0A94213D0B142E3
:1009A00015D0B94220D061451BD049451BD05145D7
:1009B00002D14FF4800217E0414502D14FF080622E
:1009C00012E0594501D104220EE0714501D14022C7
:1009D0000AE0584D1435A94206D0564A28329142B1
:1009E00001D11A4600E022464B4908394A60C16AE3
:1009F00071E04FF0020808FA04F818EA020F70D00C
:100A00005FEA83786DD50A68920606D40A6822F0F8
:100A10000A020A60012180F82110DFF810814FF4EA
:100A20000072016808F1140813011402414524D929
:100A3000A9420DD0B1420FD0B9421AD0614515D0AC
:100A4000494515D0514501D1120312E0594501D154
:100A500002220EE0714501D120220AE0354D143505
:100A6000A94206D0334A2832914201D11A4600E009
:100A700022462F49091F0A6029E0A94213D0B1423A
:100A800015D0B94220D061451BD049451BD05145F6
:100A900002D14FF4001217E0414502D14FF000722D
:100AA00012E0594501D102220EE0714501D1202208
:100AB0000AE0204D1435A94206D01E4A2832914240
:100AC00001D11A4600E02246134908394A60002144
:100AD00080F82010816A00291CD0BDE8F05F08472B
:100AE000FFE70825A540154214D01A0712D50A6859
:100AF00022F00E020A6090F84020C36B012101FA37
:100B000002F25A60816380F82110002180F82010E1
:100B1000016BE0E7BDE8F09F080002401C000240C6
:100B20003000024044000240580002406C00024085
:100B3000080402401C04024030B560B11A4B026840
:100B400014219A4209D2194B1344B3FBF1F18900E5
:100B5000016417490AE0012030BD134B5B42134486
:100B6000B3FBF1F1890001640F490839C163022127
:100B700080F82110136843F6F0718B43F0E90114FB
:100B80002143D0E902452C432143046921434469B0
:100B900021438469214319431160002141630122EB
:100BA00042770177084630BD08040240F8FFFDBFD8
:100BB0000000024070B5044690F82000002501288E
:100BC0000CD0012084F8200094F821600020012E30
:100BD00006D084F820000225284670BD022070BD92
:100BE000022684F82160A0632068066826F00106CA
:100BF00006602046FFF79CFDE06A00282068016837
:100C000002D041F00E0106E021F0040101602068ED
:100C1000016841F00A0101602068016841F00101AA
:100C20000160D9E770B5044600F02AF90546601C5A
:100C300002D004480078044400F022F9401BA0428E
:100C4000FAD370BD0800002070470000044910B5B9
:100C50000A68024202D00860FFF7F6FF10BD0000EC
:100C6000140401402DE9F84FDFF8C8910024A9F1E0
:100C7000040B23460F2709F1040AABF1040ED1E05F
:100C80000125A54006EA0502AA4276D1DFF8A8C1EF
:100C90004E68A6EB0C0866452BD00DDC032E34D035
:100CA00005DC36B3012E19D0022E2FD11BE0112EF8
:100CB00016D0122E2AD119E0B8F5881F19D006DCFB
:100CC000B8F5803F15D0B8F5801F1FD111E0B8F5F9
:100CD000001F0ED0B8F5041F18D10AE0CB6815E04C
:100CE000CB681B1D12E0CB6808330FE0CB680C33D8
:100CF0000CE08B682BB1012B4FF0080303D045614A
:100D000004E0042302E0056100E00023FF2A01D88B
:100D1000064601E000F104064FEA840501D9A5F179
:100D20002005D6F8008007FA05FC28EA0C0803FA2B
:100D300005F548EA0508C6F800804D68ED0070D555
:100D40003E4DAE6946F00106AE61AD6924F0030682
:100D500005F0010500953A4D06EB050CDCF808504E
:100D6000A607360F07FA06F825EA0805DFF8D4804B
:100D7000404503D14FF0000825E052E0DFF8C8807D
:100D8000404502D14FF001081DE0DFF8C08040452A
:100D900002D14FF0020816E0DFF8B480404502D1DE
:100DA0004FF003080FE0DFF8AC80404502D14FF070
:100DB000040808E0DFF8A080404502D14FF00508A4
:100DC00001E04FF0060808FA06F848EA0508CCF8F2
:100DD00008804D68D9F80060ED024D4601D51643F4
:100DE00000E096432E604D68DAF80060AD0255468B
:100DF00001D5164300E096432E604D68DBF8006095
:100E0000AD035D4601D5164300E096432E604D6864
:100E1000DEF80060ED03754601D5164300E0964309
:100E20002E60641C0A681646E2407FF429AFBDE8D4
:100E3000F88F00000804014000001110001002406B
:100E40000000014000080140000C0140001001407A
:100E50000014014000180140001C01408068084057
:100E600000D001207047C26821EA02030A4043EA29
:100E70000241016170470AB1016170470904FBE753
:100E800001488068704700000800002070B5040029
:100E900011D021684CF6CC400860216845F25550CD
:100EA0000860D4E9000141602168A0688860FFF70C
:100EB000E7FF05460DE0012070BD00BFFFF7E0FF32
:100EC000401B272805D92068C068800701D003206F
:100ED00070BD2068C0688007F0D121684AF6AA205A
:100EE0000860002070BD00684AF6AA210160002059
:100EF00070470000024881680278114481607047A1
:100F000008000020074810B5016841F01001016099
:100F1000032000F075F80F2000F006F800F024F828
:100F2000002010BD0020024070B50D4D04464FF466
:100F30007A712878B1FBF0F00A490968B1FBF0F04A
:100F400000F0DCFA48B9102C07D200222146501ECE
:100F500000F036F800206C6070BD012070BD00000C
:100F600008000020140000200C4808B5816941F0F9
:100F700001018161816901F001010091C16941F0C4
:100F80008051C161C06900F0805000900448416800
:100F900021F0E06141F00071416008BD00100240A5
:100FA00000000140002809DB00F01F0201219140F0
:100FB0004009800000F1E020C0F8001170470000F7
:100FC000F0B40E4B1B680C46C3F30223C3F10705B4
:100FD000042D00D90425191D072901D2002300E0A2
:100FE000DB1E012606FA05F1491E214099409E406C
:100FF000761E16403143F0BC02F0DCB80CED00E088
:10100000064900F0070208684FF6FF03184040EA5F
:101010000220034A10430860704700000CED00E016
:101020000000FA052DE9F0470F46050061D0434E58
:10103000306800F00700B84209D2306820F007009D
:1010400038433060306800F00700B84251D128685A
:101050003B4C810712D5400703D5606840F4E0603F
:1010600060602878000703D5606840F460506060D5
:101070006068A96820F0F000084360602878C00725
:1010800028D06868012810D02168022810D089076C
:1010900000292EDA616821F0030101436160FFF746
:1010A000EFFE804641F288390DE021688903EFE7C1
:1010B0008901EDE7FFF7E4FEA0EB0801494502D9FD
:1010C0000320BDE8F0876068696800F00C00B0EBB1
:1010D000810FEFD1306800F00700B8420BD93068BB
:1010E00020F0070038433060306800F00700B84255
:1010F00001D00120E5E72878400705D56068E96858
:1011000020F4E060084360602878000706D5606836
:10111000296920F4605040EAC100606000F038F8AE
:101120006168084AC1F30311515CC8400649086070
:1011300006480068FFF7F8FE0020C2E700200240E2
:1011400000100240C2460008140000200C000020DD
:101150000448054900684968044AC1F30221515C0A
:10116000C84070471400002000100240D24600081A
:101170000448054900684968044AC1F3C221515C2A
:10118000C84070471400002000100240D2460008FA
:101190000E4A51680E4801F00C03042B11D0082BA5
:1011A0000FD10C48C1F38343C903C05C0AD5516811
:1011B000084AC1F34041921E515C054A5043B0FBBE
:1011C000F1F07047044948437047000000100240A6
:1011D00000127A00B246000800093D002DE9F84FE0
:1011E000040070D02078C04DC00749D06868C0F3B3
:1011F0008100012807D06868C0F38100022809D166
:101200006868C00306D52868800339D5606800285F
:10121000E7D035E06068B0F5803F0BD010B1B0F595
:10122000A02F11D0286820F480302860286820F48E
:10123000802002E0286840F480302860606890B127
:10124000FFF71EFE06460AE0286840F4802028606A
:10125000F0E700BFFFF714FE801B642873D82868EE
:101260008003F7D50CE0FFF70BFE064605E000BF54
:10127000FFF706FE801B6428F0D828688003F7D4A7
:1012800020789A4E80074FF001094FF0000839D5B9
:10129000686810F00C0F07D06868C0F3810002285E
:1012A00009D16868C00306D42868800714D520696E
:1012B000012808D110E02069B0B1C6F80090FFF70E
:1012C000DFFD074605E00AE1FFF7DAFDC01B022853
:1012D000C4D828688007F7D52868616920F0F8002D
:1012E00040EAC10028600DE0C6F80080FFF7C8FDA5
:1012F000074604E0FFF7C4FDC01B022823D8286876
:101300008007F7D4207800072CD57948A169D9B196
:10131000C0F80090FFF7B4FD074604E0FFF7B0FD0A
:10132000C01B02280FD8686A8007F7D571484FF4B0
:10133000FA510068B0FBF1F0009000BF0098411E28
:101340000091FAD20EE080E0C0F80080FFF798FD2F
:10135000074604E0FFF794FDC01B022875D8686AB1
:101360008007F7D42078400760D5E8690027C000DF
:1013700008D4E86940F08050E861E869012700F08E
:10138000805000905C480168C90513D40168834609
:1013900041F480710160FFF773FD824606E000BFF3
:1013A000FFF76EFDA0EB0A0064284ED8DBF80000C2
:1013B000C005F5D5E06801280AD008B1052813D08A
:1013C000286A20F001002862286A20F0040002E068
:1013D000286A40F001002862E06841F2883B98B139
:1013E000FFF74EFD82460BE0286A40F004002862B9
:1013F000EEE700BFFFF744FDA0EB0A0159455AD8BC
:10140000286A8007F6D50CE0FFF73AFD824605E032
:10141000FFF736FDA0EB0A0159454CD8286A800732
:10142000F6D41FB1E86920F08050E861E06988B324
:101430006968C1F38101022944D00228C6F860809E
:1014400004D0FFF71DFD044638E034E0FFF718FD37
:10145000074604E0FFF714FDC01B02282BD82868BC
:101460008001F7D4206AB0F5803F05D16868A16893
:1014700020F4003008436860D4E908010843696833
:1014800021F4741108436860C6F86090FFF7F8FC17
:10149000044606E025E000BFFFF7F2FC001B02282F
:1014A00009D828688001F7D51BE000BFFFF7E8FCEA
:1014B000001B022802D90320BDE8F88F28688001AC
:1014C000F4D40EE00128F7D06868226A00F4803175
:1014D000914204D1616A00F47010884201D0012069
:1014E000EAE70020E8E70000001002400000424266
:1014F00080044242140000200070004010B5401EDD
:10150000B0F1807F01D3012010BD4FF0E024606175
:101510000F21601701F04EFE0020A061072020611E
:10152000002010BD70B590F83C20012A2CD0012479
:1015300080F83C40022280F83D2003685A689D688C
:1015400022F070060A6832435A60104B02689A42D1
:101550000ED00F4B9A420BD0B2F1804F08D00D4BFA
:101560009A4205D00C4B9A4202D00C4B9A4204D1BD
:10157000496825F080031943916080F83D400021BF
:1015800080F83C10084670BD022070BD002C014060
:10159000003401400004004000080040000C0040FE
:1015A00010B5040003D094F83D0010B107E001200D
:1015B00010BD002084F83C00204600F01FF80220F7
:1015C00084F83D00211D206800F080FE012084F891
:1015D000460084F83E0084F83F0084F8400084F818
:1015E000410084F8420084F8430084F8440084F801
:1015F000450084F83D00002010BD000008B50068DB
:10160000B0F1804F08D10548C16941F00101C161C5
:10161000C06900F00100009008BD00000010024009
:1016200070B5044690F83C000025012817D001262B
:1016300084F83C60022084F83D002068826822F033
:10164000770222F47F4282600868502838D00DDC8F
:1016500020284FD005DC90B3102811D14AE0022099
:1016600070BD302846D040280AD13BE060282FD0FA
:1016700070280DD0B0F5805F03D0B0F5005F12D0B8
:10168000012584F83D60002084F83C00284670BDA8
:10169000CB68D1E90121206800F06BFE20688168E9
:1016A00041F0770109E0CB68D1E90121206800F021
:1016B00060FE2068816841F480418160E1E719E0C3
:1016C000CA684968206800F029FF5021206806E0B8
:1016D000CA684968206800F032FF6021206800F085
:1016E00052FECEE7CA684968206800F017FF402123
:1016F0002068F4E7226801461046F0E72DE9F04142
:101700000D46040003D094F83D0018B108E0012014
:10171000BDE8F081002084F83C00204600F040F84D
:10172000022084F83D002068816844F2070291435A
:101730008160211D206800F0C9FD226890689169D0
:10174000166A2B68AF69034340F20330814341EAD4
:101750000721A868EF6908434FF6FC418843E96810
:1017600040EA0720014328692F6A000140EA073058
:10177000084369686D6926F0220646EA0515294383
:1017800093602268906154F8460B0162012004F8CE
:101790001F09E0752076E0762077A0750020B7E776
:1017A00000B585B000210091019102910391204A7A
:1017B00001682048914221D1816941F40061816131
:1017C000816901F400610491816941F04001816106
:1017D0008069694600F0400004904FF4206000905A
:1017E0001548FFF73FFA1548416821F0C00141F064
:1017F000E06141F0C001416005B000BD104A914276
:10180000FAD1C16941F00201C161C16901F002016F
:101810000491816941F0040181618069694600F0A9
:1018200004000490C02000900648FFF71BFAE3E78D
:10183000002C01400010024000180140000001404F
:10184000000400400008014070B590F83E60044676
:1018500090F83F5090F8423090F84320022021B198
:1018600004290ED0012E1BD114E0012E18D1012B1A
:1018700016D184F83E0084F842000122002120683D
:1018800020E0012D0CD1012A0AD184F83F0084F810
:10189000430014E0012D03D1012B01D1012A01D015
:1018A000012070BD84F83E0084F83F0084F84200B7
:1018B00084F8430001220021206800F04DFD012240
:1018C0000421206800F048FD2068016841F0010112
:1018D0000160002070BD000000B585B000210091BE
:1018E0000191029103910068B0F1804F11D10A4833
:1018F000816941F0040181618069694600F004005A
:101900000490032000900220019003900348FFF709
:10191000A9F905B000BD0000001002400008014018
:1019200070B5044690F83C0000260D4601280FD003
:10193000012084F83C006AB1042A1DD0082A2FD067
:101940000C2A3FD00126002084F83C00304670BDB0
:10195000022070BD206800F01FFD2068816941F001
:10196000080181612068816921F00401816120689A
:1019700081692A69114311E0206800F03DFD20686B
:10198000816941F4006181612068816921F480618D
:101990008161206881692A6941EA02218161D2E777
:1019A000206800F05FFD2068C16941F00801C16155
:1019B0002068C16921F00401C1612068C1692A69F8
:1019C000114311E0206800F081FD2068C16941F4F5
:1019D0000061C1612068C16921F48061C161206832
:1019E000C1692A6941EA0221C161ACE710B504006E
:1019F00003D094F83D0010B107E0012010BD002095
:101A000084F83C00204600F01EF8022084F83D00D7
:101A1000211D206800F05AFC012084F8460084F85B
:101A20003E0084F83F0084F8400084F8410084F8C8
:101A3000420084F8430084F8440084F8450084F8A8
:101A40003D00002010BD704710B50446022249B188
:101A500004290ED0082913D094F84100012816D08B
:101A6000012010BD94F83E000128F9D184F83E20F1
:101A70000FE094F83F000128F2D184F83F2008E0FD
:101A800094F840000128EBD184F8402001E084F86C
:101A900041200122206800F05FFC13492068134AAE
:101AA000884201D0904203D1436C43F40043436425
:101AB000206888420DD090420BD0B0F1804F08D002
:101AC0000B49884205D00B49884202D00A49884216
:101AD00004D1816801F00701062903D0016841F0B3
:101AE00001010160002010BD002C014000340140C4
:101AF0000004004000080040000C004070477047A0
:101B0000F8B5016804460868CA684B6910F00F0F01
:101B10004FF0000559D003F0010602F490773743E7
:101B200065D0C10705D0D10503D5616C41F0010135
:101B30006164410705D5D90703D0616C41F002010A
:101B40006164810705D5D90703D0616C41F00401B8
:101B50006164010707D502F02001314303D0616CB5
:101B600041F008016164616C00293AD0800604D517
:101B7000900602D5204600F0CEFD20684069616CD9
:101B8000C0F38010090700D460B3204600F08EFD3A
:101B900020684069400621D52068143050E8001FB5
:101BA00021F0400140E80012002AF5D1E06BA8B115
:101BB0006D494163E06BFEF703FE002811D0E06B36
:101BC000416B01B0BDE8F040084783060FD593068E
:101BD0000DD52046BDE8F84000F09DBD2046FFF73A
:101BE0008EFFF8BD2046FFF78AFF6564F8BD266BBF
:101BF0002023012E7CD1C6067AD5D60678D5086872
:101C00004868009048694FF00206400640D5E16BF5
:101C1000086840680004000CE8D0A28D8242E5D933
:101C2000E085886920282DD020680C3050E8001FFE
:101C300021F4807140E80012002AF5D120681430A8
:101C400050E8001F21F0010140E80012002AF5D100
:101C50002068143050E8001F21F0400140E80012D5
:101C6000002AF5D184F84230256320680C3050E812
:101C7000001F21F0100140E80012002AF5D1E06BAE
:101C8000FEF77AFD6663A08DE18D401A81B22AE0ED
:101C9000A08DE18D401A81B2E08D0028A6D00029E8
:101CA000A4D022680C3252E8000F20F4907042E871
:101CB0000007002FF5D12068143050E8002F22F0E3
:101CC000010240E80027002FF5D184F84230256357
:101CD00020680C3050E8002F22F0100240E800236A
:101CE000002BF5D166632046FFF708FFF8BDFFE73C
:101CF00005062BD5150629D594F841002128F5D1E4
:101D0000A068B0F5805F01D12069B0B1206A411CA4
:101D10002162216800784860E08C401E0004000CBD
:101D2000E084E3D12068C16821F08001C1602068AF
:101D3000C16841F04001C160D8E7206A0088C0F363
:101D400008004860206A801C2062E5E74006CDD587
:101D50005006CBD5CA68204622F04002CA6084F8FB
:101D6000413000F0F5F8C1E76325000870B50400C4
:101D700004D094F84100002510B106E0012070BDA8
:101D800084F84050204600F023F8242084F84100D5
:101D90002068C16821F40051C160204600F01CFD9C
:101DA0002068016921F4904101612068416921F0B6
:101DB0002A0141612068C16841F40051C160656435
:101DC000202084F8410084F842006563002070BD43
:101DD0002DE9F04186B00024064600940194029457
:101DE000039400682E49884256D12E48816941F4F7
:101DF00080418161816901F480410491816941F0F0
:101E0000040181618069284D00F0040004904FF4C2
:101E1000007000900220019003200390694628463C
:101E2000FEF720FF2815CDE90004694628460294F4
:101E3000FEF718FF1E4D1D484FF08008C5E900044D
:101E4000C5E9024820200702EF612C61C5E9054081
:101E50002846FEF771FE08B1FEF78CFCF5636E6252
:101E60001248144D143801C51020A5E8110111487D
:101E700045F810496C61C5E90647FEF75DFE08B1FB
:101E8000FEF778FCB5630022114625206E62FFF74D
:101E900097F82520FFF786F806B0BDE8F08100002E
:101EA0000038014000100240000801405800024084
:101EB00090010020D401002090F84230202B01D066
:101EC0000220704721B11AB10023036300F0E0BC87
:101ED000012070477047704770B5044690F8410084
:101EE000202801D0022070BD49B342B32162A284F0
:101EF000E28400206064212384F84130A56B114BFB
:101F0000AB62A56B104BEB62A56B104B2B63A36B05
:101F10005863256813462A1DA06BFEF74BFE216807
:101F20006FF0400008602068143050E8001F41F056
:101F3000800140E80012002AF5D1002070BD012088
:101F400070BD000061260008A32600087325000864
:101F500070477047FEE700002DE9F04F85B0002480
:101F600056480094019402940394816941F0400121
:101F70008161816901F040010491816941F01001A2
:101F80008161816901F010010491816941F0800152
:101F90008161816901F080010491816941F004014E
:101FA0008161816901F004010491816941F020019E
:101FB0008161816901F020010491816941F008018A
:101FC00081618069DFF8F89000F008000490002239
:101FD00020214846FEF74FFFDFF8E8A04FF4707766
:101FE000002239465046FEF746FFDFF8DCB00022FB
:101FF00003215846FEF73FFF00224FF44871334853
:10200000FEF739FF4FF020080126CDE900860225B2
:1020100069464846CDE90245FEF724FE0F200090B0
:102020002B48CDE9010469465046FEF71BFECDE979
:10203000007669465046CDE90245FEF713FE0320BF
:102040001127CDE9000769465846CDE90245FEF75C
:1020500009FECDE9008669461C48CDE90245FEF738
:1020600001FE4FF44070CDE9000769461748CDE9FD
:102070000245FEF7F7FD002211460620FEF7A0FFFD
:102080000620FEF78FFF002211460720FEF798FF7B
:102090000720FEF787FF002211460820FEF790FF79
:1020A0000820FEF77FFF002211460920FEF788FF77
:1020B0000920FEF777FF05B0BDE8F08F0010024061
:1020C00000180140001C014000140140000C0140B8
:1020D0000000211010B58CB024216846FEF78EF95F
:1020E00000241648099414490A94C0E900144FF6D4
:1020F000FF71C0E902410461446184610120CDE9BE
:102100000004CDE902040494CDE905400794694632
:102110000A480894FFF7F2FA08B172B6FEE709948C
:1021200009A906480A94FFF7FDF9002801D072B604
:10213000FEE70CB010BD0000002C01407000002034
:1021400010B58EB000240794089409940A940B9457
:102150001C2168460C94FEF751F924484FF0804149
:1021600001601421C0E901144FF46161C0E9031456
:1021700080218161FFF714FA08B172B6FEE74FF4CF
:102180008050079007A91948FFF74AFA08B172B6BC
:10219000FEE71648FFF72AFC08B172B6FEE70B947B
:1021A0000BA912480C94FFF7BDF908B172B6FEE70F
:1021B000602000904FF4E160CDE901040420049018
:1021C000002269460948FFF7ABFB08B172B6FEE78B
:1021D000042269460548FFF7A3FB08B172B6FEE783
:1021E0000248FFF779FB0EB010BD0000B8000020D8
:1021F00010B58CB024216846FEF700F9002415487C
:10220000099413490A94C0E900144FF6FF71C0E91C
:102210000241046184610120CDE90004CDE902049A
:102220000494CDE90540079469460A480894FFF7ED
:1022300065FA08B172B6FEE7099409A905480A943F
:10224000FFF770F9002801D072B6FEE70CB010BDA0
:102250000004004000010020FEE7FEE770477047E1
:10226000FEF748BE30B58FB028216846FEF7C6F8A5
:1022700014210AA8FEF7C2F80920012100904FF4AA
:102280008030002404910691CDE901040225CDE9B6
:1022900007504FF4E01009906846FEF79FFF08B121
:1022A00072B6FEE70F20CDE90A054FF48060CDE954
:1022B0000C4002210AA80E94FEF7B4FE002801D0BB
:1022C00072B6FEE70FB030BD70470000F0B502688F
:1022D0001C4B1D4D1D4E1E4F1E4C4FF0804C984206
:1022E00009D0A04207D0604505D0A84203D0B04233
:1022F00001D0B84204D122F0700E4A6842EA0E02C0
:10230000984209D0A04207D0604505D0A84203D02A
:10231000B04201D0B84203D122F44075CA682A43C2
:102320004D6922F080022A4302608A68C2620A680C
:102330008262984201D0A04201D109690163012162
:102340004161F0BD002C0140000400400008004045
:10235000000C00400034014010B501F01F030121C2
:10236000046A99408C430462016A9A4011430162F5
:1023700010BD10B5846842EA032224F47F440A4366
:102380002243826010BD826822F070020A4342F04C
:102390000701816070470000F0B5036A026A22F00D
:1023A0000102026242688469124E24F073050C68CF
:1023B0002C4323F002058B682B430D4DA84201D01E
:1023C000B04205D123F00807CB683B4323F0040358
:1023D000A84201D0B04205D14D6922F440721543A4
:1023E0008A692A4342608461496841630362F0BD9F
:1023F000002C014000340140F0B5026A036A23F06A
:1024000010030362436884690D6824F4E64444EAD7
:1024100005248D6822F0200242EA05120F4D104E6D
:10242000A84201D0B04206D1CF6822F0800242EA31
:10243000071222F04002A84201D0B04207D14D69F4
:1024400023F4406343EA85038D6943EA85034360CF
:102450008461496881630262F0BD0000002C014084
:1024600000340140F0B5026A036A23F4807303620A
:102470004368C46922F4007224F073050C68124E9C
:102480002C438D6842EA05220E4DA84201D0B0428D
:1024900006D1CF6822F4006242EA072222F4806269
:1024A000A84201D0B04207D14D6923F4405343EA1A
:1024B00005138D6943EA05134360C4614968C1632C
:1024C0000262F0BD002C01400034014030B5046AC6
:1024D000026A22F4805202624268C3690D6823F4E2
:1024E000E64343EA05238D6824F4005444EA0534A6
:1024F000084DA84202D0084DA84204D14D6922F4EB
:10250000804242EA85124260C36149680164046204
:1025100030BD0000002C01400034014010B5036ABA
:10252000046A24F001040462846924F0F00444EA9B
:10253000021423F00A020A438461026210BD10B53E
:10254000036A046A24F010040462846923F0A0037F
:1025500024F4704444EA023243EA011182610162C8
:1025600010BD10B5406A0021C185C184FFF7C7FACC
:1025700010BD70B5446A2068406994F84110C0F3FA
:10258000C0100025212904D118B1E584204600F0AF
:10259000B4F82068406994F84210C0F380102229F2
:1025A00004D118B1E585204600F080F8606C40F059
:1025B000100060642046FFF7A2FA70BD10B5014616
:1025C000406A096809684FF0000289062ED4C28566
:1025D00001680C3151E8003F23F4807341E8003476
:1025E000002CF5D10168143151E8003F23F00103BC
:1025F00041E80034002CF5D10168143151E8003F66
:1026000023F0400341E80034002CF5D1202180F86C
:102610004210016B012909D101680C3151E8003FDA
:1026200023F0100341E80034002CF5D14263016B24
:10263000012902D0FFF74EFC10BD818DFFF75EFA35
:1026400010BD10B5406A01214163016B012902D020
:10265000FFF741FC10BD818D4908FFF74FFA10BD0F
:1026600010B50146406A09680968890616D4002138
:10267000C1840168143151E8002F22F0800241E842
:102680000023002BF5D101680C3151E8002F42F0F6
:10269000400241E80023002BF5D110BDFFF758FCA4
:1026A00010BD10B5406AFFF754FC10BD01680C3135
:1026B00051E8002F22F4907241E80023002BF5D15D
:1026C0000168143151E8002F22F0010241E8002393
:1026D000002BF5D1016B012909D101680C3151E8BA
:1026E000002F22F0100241E80023002BF5D1202119
:1026F00080F8421000210163704701680C3151E8F5
:10270000002F22F0C00241E80023002BF5D1202148
:1027100080F84110704708B590F84210222901D086
:10272000022008BD82684FF480539A4201D10169AA
:1027300021B1816A9A421BD04AB10AE00268816ADB
:102740005268C2F308020A80816A891C08E00269A3
:1027500072B10268526802F07F020A70816A491CF5
:102760008162C18D491E0904090CC18503D01BE09B
:1027700002685268F1E70168CA6822F02002CA6064
:102780000168CA6822F48072CA6001684A6922F04E
:1027900001024A61202180F8421000214163026B4E
:1027A000012A03D0FFF796FB002008BD01630168F2
:1027B0000C3151E8002F22F0100241E80023002BD9
:1027C000F5D101680A68D20602D50A684968009105
:1027D000818DFFF793F9E7E770B50446006801695A
:1027E000E26821F44051114301612169A068084366
:1027F000616908432168CA6841F20C639A43024345
:10280000CA6020684169A26921F4407111434161A5
:102810001E492068884202D1FEF7AAFC01E0FEF7BB
:1028200097FC00EBC00101EB00126068642180009E
:10283000B2FBF0F3B3FBF1F36FF018067343B2FB96
:10284000F0F5B2FBF0F605EB8305322303EB05153B
:10285000B5FBF1F5B6FBF1F605F0F00505EB061555
:10286000B2FBF0F6B2FBF0F0B0FBF1F06FF0180243
:10287000504306EB800003EB0010B0FBF1F0216841
:1028800000F00F002844886070BD0000003801404F
:1028900038B5816204468285002013466064222296
:1028A00084F84220E56B1B4AAA62E56B1A4AEA6289
:1028B000E56B1A4A2A63E26B50630A462168E06BB3
:1028C000091DFEF777F920680168406800902069CB
:1028D00048B120680C3050E8001F41F4807140E896
:1028E0000012002AF5D12068143050E8001F41F092
:1028F000010140E80012002AF5D12068143050E8A8
:10290000001F41F0400140E80012002AF5D10020EC
:1029100038BD0000BD2500084326000873250008C7
:102920000148FFF7EDB8000048010020FEE7000075
:102930002DE9F0410646806801F094FD04460D46FD
:10294000306A01F08FFD02460B462046294600F012
:1029500053F81B4C206801F008FB06460F466068E0
:1029600001F003FB04460D463046394601F0CEFA2D
:10297000134E024608364FF4616731783B4600201B
:1029800000F0E6F82046294601F0C0FA0246317907
:102990003B46012000F0DCF80A4C02212046FEF7FD
:1029A00062FA01212046FEF75EFA6115064C2046C8
:1029B000FEF759FAA1152046BDE8F041FEF753BADB
:1029C0004800002000140140000C014070B50022B6
:1029D00004460D46134601F0DFFA01D2002070BD17
:1029E000002213462046294601F010FC01D20120A6
:1029F00070BD022070BD00002DE9FC47354C064635
:102A00000F46D4E9040101F003FB4FF0FF3201F05F
:102A1000E5FD8A46054632463B4601F02DFCC4E9F9
:102A20000801804689462846514632463B4601F019
:102A300059F8C4E90A01D4E90620CDE9002080F064
:102A400000434046494600F0B4F8C4E90801D4E91F
:102A50000620CDE9002080F00043D4E90A0100F00F
:102A6000A8F8C4E90A01D4E90801FFF7AFFF206024
:102A7000D4E90A01FFF7AAFF80466060D4E90801A3
:102A8000D4E9062321F0004115461E4601F0E6F880
:102A9000DFF8449000224B4601F0BAFA01F036FA12
:102AA0000746D4E90A0121F000412A46334601F0E5
:102AB000D5F800224B4601F0ABFA01F027FA04F1F9
:102AC000300202F10801C2E900702068C1E9000883
:102AD000BDE8FC87180000200000594070B51B4D70
:102AE00001212846FEF7BAF94FF46164C0B1022112
:102AF0002846FEF7B3F9E8B104212846FEF7AEF9FF
:102B0000002821D1002223460221104600F020F89F
:102B1000002223460221BDE87040012000F018B8D1
:102B2000002123465A22084600F012F85A22234672
:102B30000021F0E723465A220121002000F008F886
:102B40005A2223460121E6E770BD0000001C014027
:102B500070B5164E02FB03F4642580B1012823D121
:102B600030464068E1B101291CD0002100F099FCF9
:102B700094FBF5F17068BDE8704000F082BC0B4832
:102B8000006849B1012909D05FF0000100F089FC1B
:102B900094FBF5F13068EEE70321F7E70421F5E750
:102BA0000321E3E70421E1E770BD000000000020FD
:102BB00070472DE9F0479046DDE908691F46044655
:102BC0000D4632464B4601F021FB03D230464946C2
:102BD000BDE8F08742463B462046294601F0DCF935
:102BE00002D240463946F3E720462946F0E7000086
:102BF0002DE9F04104464FF40070884615468242A4
:102C000000DD0546D4F80804C0F50076AE4200D3D6
:102C10002E4604F5027738443246FDF778FBB4F8C7
:102C20000804B5422844C0F30800C4F8080405D0DD
:102C3000AA1B08EB06013846FDF769FB236893F8E9
:102C40004100202820D1114D287800281CD10120D6
:102C50002870D4F80814D4F80C04814212D08842A9
:102C600001D2091A01E0C0F500718EB2C1193246D5
:102C70001846FFF731F9B4F80C043044C0F30800EB
:102C8000C4F80C0400202870BDE8F081600000202A
:102C900070B506460C46001D00F010F80546611997
:102CA00006F1140000F00AF8284470BD004870478F
:102CB000CC47000800487047ED47000870B505464E
:102CC0000C460846291D00F009F90646A01905F131
:102CD000080100F003F90644A01905F10C0100F009
:102CE000FDF8304470BD00000048704701480008FE
:102CF00000487047224800080349016000214160F4
:102D00008160C16070470000184700082DE9F84352
:102D100004460D4608784978042640EA0120A9783F
:102D200040EA0140E97840EA01676068B84204D2AD
:102D3000B900E068FDF770FAE06000208046676047
:102D400010E0A919AA5D4B7842EA03228B78C97872
:102D500042EA034242EA0161A160E26842F82010BF
:102D6000401C361D61688142EBD8A819A95D4278E4
:102D7000361D41EA02218278C07841EA024141EAE7
:102D800000672069B84204D2B900A069FDF744FA8F
:102D9000A0610020276110E0A919AA5D4B7842EAE2
:102DA00003228B78C97842EA034242EA01616161F9
:102DB000A26942F82010401C361D21698142EBD8DF
:102DC000A819A95D4278361D41EA02218278C078AF
:102DD00041EA024141EA0067E069B84204D2B90021
:102DE000606AFDF719FA6062E76100271DE0A91922
:102DF000684600F061FE301D064604E0A95DAA1990
:102E0000761C02F8011C00990144B142F6D8009AE0
:102E1000291802442A44491E02F8018C2162009AB2
:102E20008618606A40F827107F1CE069B842DED837
:102E30003046BDE8F8830000004870473848000875
:102E400000487047DA4600080048704759480008B3
:102E5000004870477A480008004870478D480008CD
:102E600000487047AE48000810B5064B0A68B2FB30
:102E7000F3F403FB1424B2FBF3F203681A44026078
:102E80000C6010BD00CA9A3B10B50A46C1F3C75387
:102E90000BB103F56073002400F8014B00F8014BFF
:102EA00000F8024B540100F8014CD40800F8044B20
:102EB000D40A00F8034CC1F3C34242EA03141A09CE
:102EC00000F8024C00F8012C11F1FF4F04D310F868
:102ED000011D41F080010170082010BD10B5C278BD
:102EE00052090A60037942EAC3020A60437942EA5E
:102EF000C3220A6010F8063F03F00F0342EAC34200
:102F00000A6010F8013B04781B0904F07F0453EABF
:102F1000041305D04FF0804404EBC3531A430A60F6
:102F2000007800F0800042EA00600860082010BDD0
:102F30000A7842604B7842EA032242608B7842EA88
:102F400003424260CB7842EA036242600B790A1D79
:102F50008360497943EA01218160937841EA034122
:102F60008160D27841EA02618160082070470000E8
:102F7000004870470149000800487047224900088E
:102F800002490022C0E9001282607047A44700088D
:102F90000048704730490008004870475149000810
:102FA00070B506460C46001D00F008F8054661198C
:102FB00006F1140000F002F8284470BD70B50C460C
:102FC000054641682046FFF75FFF0646A019A9683D
:102FD000FFF75AFF0644A019E968FFF755FF304490
:102FE00070BD2DE9F041054600790870A8880E46AD
:102FF000000A487068680424000C88706868000E35
:10300000C87000210CE0E868321950F821003055F2
:10301000030A5370030C000E9370491CD070241DDA
:1030200068688842EFD8287C3055288A010A301910
:1030300041702969090C81702969090EC17000214C
:103040000BE0A869321950F821003055030A53707B
:10305000030C000E9370D070491C2869241D88420F
:10306000EFD8287F3055A88B0027010A301941700E
:10307000E969090C8170E969090EC170241D13E02A
:10308000686A50F82700FDF723F980463019414659
:1030900000F01FFD686A241D424650F827103019C1
:1030A000FDF735F944447F1CE869B842E8D820466A
:1030B000BDE8F08170B50646007908700C46B0682E
:1030C000FDF706F90546601C294600F002FD601D6B
:1030D0002A46B168FDF71BF9681D70BD2DE9F04166
:1030E000054600790870A8880C46000A4870A86850
:1030F000FDF7EEF80646A01C314600F0EAFCA01DE4
:103100003246A968FDF703F9B71DE868FDF7E0F856
:103110000646E019314600F0DCFC3F1DE01932465E
:10312000E968FDF7F4F83E442869FDF7D1F8074651
:10313000A019394600F0CDFC361DA0193A46296980
:10314000FDF7E5F8F0196969221821540B0A53704C
:103150000B0C090E9370D170001DBDE8F08102794F
:103160000A708288120A4A704268120C8A70426899
:10317000120ECA70027A0A710289130A0A1D4B7173
:103180008168090C91708068000ED070082070472B
:1031900070B506460C464068FDF79AF8054620468D
:1031A000294600F096FC201D2A467168FDF7AFF80D
:1031B000281D70BD0907090E002804DB00F1E0207E
:1031C00080F80014704700F00F0000F1E02080F854
:1031D000141D704770B51A4800240460446008301C
:1031E00004604460174800F01FFC15481649103071
:1031F00018A2016015494160154811491031046158
:10320000C0E900211430FFF777FD114816A22430E1
:10321000A0F110010461C0E9002114301A4940F8FE
:103220000C1B1A4914A602C0164D0124FFF764FDB9
:103230001030FFF761FD40F8186CC0E9045470BD10
:103240004800002018020020BC470008614900081F
:10325000500F00202F73746D33322F7379737465A0
:103260006D5F7570000000002F73746D33322F6531
:103270006E636F64657273002F636D645F76656C57
:1032800000000000312900087847000800470008C6
:1032900070B5FFF723FC20211748FDF7E4FD20213E
:1032A0001648FDF7E0FD164D286800F0DFF8154CD4
:1032B000A060686800F0DAF80546E060A06801F0F8
:1032C000FDF8114C6060284601F0F8F82246A06035
:1032D00002F11000D0E9021003681B689847A4F6B9
:1032E0004C5000F043FAC820FDF79CFCBDE870404C
:1032F0000648FDF7F8BD0000000C01400018014031
:103300000000002018000020640F0020640000204E
:1033100094B0242237496846FDF73EF83549242207
:10332000243109A8FDF738F8334809A9C0F804D0BA
:103330000160FDF7E7FDFEF795FFFEF70DFE2F4854
:10334000416941F0010141614069002200F0010042
:10335000129011460E20FDF733FE0E20FDF722FEDF
:10336000002211460F20FDF72BFE0F20FDF71AFE5D
:10337000FEF7E6FEFEF7AEFEFEF73AFF21482049D3
:103380000C2201604FF4E131416000218160C16095
:10339000C0E904128161C161FEF7E8FC08B172B6B0
:1033A000FEE718481849E43801600621416040F6FC
:1033B000FF718160FDF76AFD08B172B6FEE7114842
:1033C00000219038FEF740FB0E4804219038FEF7AC
:1033D0003BFB0C483C21D838FEF736FA09483C2123
:1033E0004838FEF731FA00F075F800BFFFF750FFDC
:1033F000FCE70000684600080000002000100240C2
:1034000000380140480100200030004010B504465B
:1034100090F8200008B1012200E00022A189206874
:10342000FDF729FD94F8200030B10022E1896068A1
:10343000BDE81040FDF71FBD0122F7E710B50446B7
:1034400090F8200048B10022A1892068FDF713FD03
:1034500094F8200018B1012202E00122F4E70022D2
:10346000E1896068BDE81040FDF705BD90F82010C7
:1034700040690068406A002902D14FF6FF71081ABE
:103480007047C269806900682AB1042A05D0082AF9
:1034900005D0016470474163704781637047C16321
:1034A000704719B1032903D0042903D000F004B8F0
:1034B000FFF7C4BFFFF7AABF10B5044681890068B3
:1034C0000022FDF7D8FCE1896068BDE810400022C9
:1034D000FDF7D1BC70B52B4C012220212046FDF711
:1034E000CAFC012220212848FDF7C5FC274D0022F7
:1034F00002212846FDF7BFFC002201212846FDF7E6
:10350000BAFC6515002229462046FDF7B4FC0022CE
:10351000A1152046FDF7AFFC1D4C2A46211D01C90F
:10352000FEF7CAFC0020C4F8E80CC4F8EC0CC4F8A0
:10353000F40CC4F8F00C04F63851204600F05EFAA2
:1035400004F65C51204600F059FA214601F5576215
:103550005FF0000001EB8003D3F8843C53B1401CC2
:103560001928F7DB0020FFF723FBBDE8704001209E
:10357000FFF71EBB01EB80016430C1F8842C506062
:10358000F0E70000000C0140001801400014014069
:103590001802002000487047ED470008406B704754
:1035A00070B504460C300546FFF772FB2846216BC8
:1035B000BDE870400847000000487047CC4700084D
:1035C000F0B587B004463048009000212F48ADF890
:1035D000041002900D464FF480660390CDE904017B
:1035E00004EB8507D7F8200CE8B10089ADF804009A
:1035F000D7F8200C00680290D7F8200C07F5426736
:1036000040680168896888470390386840680168A5
:10361000C9688847CDE9040638686A4601692068A8
:103620000368204698476D1C192DD9DB5FF0000513
:1036300004EB8507D7F8840CF0B18088ADF804005E
:10364000D7F8840C80680290D7F8840C07F684477A
:10365000016889688847039038680168C9688847A5
:10366000CDE9040638680168496888470146206842
:103670006A460368204698476D1C192DD8DB012047
:1036800084F8FC0C07B0F0BD60470008C74800088C
:103690003EB504466846FFF773FC20686A460A2177
:1036A000036820469847FDF7EBFBC4F814043EBDC1
:1036B0003EB50D460446642903DB94F8FC0C002853
:1036C0003FD0106804F62701036810469847FF2191
:1036D00084F82018FE2180B284F8211884F822088A
:1036E000010A84F823180144C9B2C1F1FF0184F82A
:1036F000241884F82558291284F826180021052258
:10370000C01D04E0A318521C93F8203819448242CB
:10371000F8DBCA1701EB126222F0FF02891A80B2AD
:103720002218401CC1F1FF0185B282F82018B5F5BE
:10373000806F07D82A4604F50261201DFFF758FA6A
:1037400028463EBD07490322074B00938DF804200D
:103750000291216820466A460B68072198474FF07E
:10376000FF303EBDC8480008484700082DE9FF5F0C
:103770000446FDF785FB0546D4F8040D0026291AFA
:1037800042F6F820814201D984F8FC6CD4F8E80CA8
:1037900028B1D4F8080DA84201D2C4F8E86CDFF8CB
:1037A00050924FF0FF3B4FF008084FF0010A04F52C
:1037B00084676068211DC06B006840684042C0F3A8
:1037C0000802D4F8080282420AD0421C0B1DC1F83C
:1037D0000422C05CC2F30802C1F80422002812DAF5
:1037E00094F8FC0C58B1D4F8000D40F6C411281A16
:1037F000884204D92046FFF74BFFC4F8005D002043
:1038000004B0BDE8F09FD4F8F81C0A18C4F8F82CEE
:10381000D4F8E81C072928D099B3012949D00229F6
:1038200055D0032959D0042961D0052968D006292B
:103830006ED00829BDD102EA0902C4F8E86CFF2A5B
:10384000B7D1D4F8F00C98B30A287ED006286ED0F1
:103850000B286DD004EB8000D0F8F40A0028A8D023
:1038600001680A6839469047A3E7D4F8F41C4A1C5B
:10387000C4F8F42CC855D4F8EC0C401EC4F8EC0C79
:1038800051E002E0C4F8E88C93E7FF2809D0FDF787
:10389000F7FA401B05288CD984F8FC6C6FF0010006
:1038A000AEE705F11400C4F8E8ACC4F8080D80E7F1
:1038B0003FE0FE2809D0C4F8E86C94F8FC0C00281E
:1038C000D2D12046FFF7E4FE73E702200CE0C4F8F3
:1038D000F46C0321C4F8EC0C15E0D4F8EC1C01EBFB
:1038E0000020C4F8EC0C0420C4F8E80C61E702EAFC
:1038F0000902FF2A02D0C4F8E86C5AE70520F3E772
:103900000621C4F8F00CC4F8E81CC4F8F80C50E721
:10391000D4F8F01C01EB0020C4F8F00C0720C4F828
:10392000E80CD4F8EC0C00289ED1ABE70DE053E096
:103930005AE02046FFF7ACFE2046FFF741FEC4F8F0
:10394000005D5846C4F8045D5AE701A8FFF718FB6C
:10395000FDF796FAD4F81414401A0090394601A8DD
:10396000FFF7E6FA00984FF47A71B0FBF1F0029994
:103970000844029000984FF47A71B0FBF1F201FB19
:10398000120043F609514843039901EB801003905C
:10399000FDF776FA4FF47A71B0FBF1F1029A511A01
:1039A000491EC4F818144FF47A71B0FBF1F201FB10
:1039B000120010494843104901EB80100399084454
:1039C00004F21C41C4F81C04081FFFF74DFAFDF770
:1039D00057FAC4F8040DECE6394604F55160FFF7D8
:1039E00095F984F80CADE4E684F8FC6CE1E600009F
:1039F000FF000080F7C2FFFF00CA9A3B5FF00002A1
:103A000000EB8203D3F8203C23B1521C192AF7DBC8
:103A10000020704700EB82037D32C3F8201CC1E90F
:103A2000022001207047000010B5204901602049A4
:103A300041600021C0F80812C0F80C14C0F810143E
:103A400000F5516280F8FC1C1A4BC2E90031D160CC
:103A500011619161D16151624FEA010200EB820371
:103A6000521CC3F8201C192AF8D3002200EB820351
:103A7000521CC3F8841C192AF8D300224FF4806327
:103A80008418521C84F820149A42F9D30022841816
:103A9000521C84F820189A42F9D3C0F8141DC0F8BB
:103AA0001C1DC0F8201DC0F8281D10BD904700083F
:103AB000480100203047000810B5002202608B5CEE
:103AC000D400A3400468521C23430360042AF6D3A5
:103AD00010BD0022D30021FA03F38354521C042AA0
:103AE000F8D3704710B591EA030F48BF83F0004345
:103AF00000F1D683841A71EB030C05D2121943EB43
:103B00000C03001B61EB0C01DFF824E14FEA1154B8
:103B1000A4EB135C1EEA430F18BF9EEA445F73D008
:103B200023EA0E03DCF1200E21EA045143F4801352
:103B300032D322FA0CFE10EB0E0023FA0CFE41EBFE
:103B40000E01CCF1200E03FA0EFE10EB0E0051F127
:103B50000001B1F5801FCCF1200E32D201EB0451EF
:103B600012FA0EF2BDE8104058BF7047401C38BF33
:103B70005FEA420218BF7047002814BF20F001001E
:103B800041F100014FEA410313F5001F38BF7047B0
:103B9000A1F1C04100F034BB012A43EB0302ACF1B8
:103BA000200CDCF11F0E32BF4FF0000E23FA0CF395
:103BB00010EB030041EB0451B4EB115FD0D0A1EB4B
:103BC000045101F5801149085FEA300001EB04510E
:103BD0000ED350F1000038BF12FA0EFE08D1BDE836
:103BE0001040C9E7401C38BF5FEA4202CAD1C3E7B0
:103BF000BDE810404FEA410313F5001F38BF70477E
:103C0000A1F1C04100F0FCBA9EEA445F08D011EA7D
:103C10005E0FBDE8104004BF01F000410020704776
:103C2000BDE8104070B500F09DFA00BF64FBBE3ED9
:103C30000000E0FF02494FF0000000F09DBC00BF13
:103C40000000F87F491058BFC1F140415B1058BFD8
:103C5000C3F140438B42EFF3008070472DE9C04130
:103C600030B4DFF8A0C23CEA111418BF3CEA1314C8
:103C700000F0EC8081EA03051CEA111444EAD574D3
:103C800018BF1CEA131500F0C780A4EB05044FF021
:103C9000004545EAC12145EAC32341EA505143EAC0
:103CA000525304F17F74994204F500344FEAC02066
:103CB0004FEAC22208BF904200F09C804FEA136591
:103CC0000FF24016765D4FEA134506FB05F7C7F184
:103CD000807706FB07F74FEAD737A7FB03687642E2
:103CE000C8F58038A7FB06CE38BFA8F1010807FB4E
:103CF00008E64FF0000EA6FB028CE6FB03CEDCF1DB
:103D0000000CCEF1004E38BFAEF1010EA6FB0C58F0
:103D10004FF000074FF00005E6FB0E87A1FB08C639
:103D2000A0FB07CE16EB0E0645F10005E1FB07658B
:103D300015F1E04E7EBFA4F580345FEA46066D4182
:103D400016F1800745F100054FEA17274FEA06668E
:103D500047EA0567A6F1DE46B6F1805F4FEA152512
:103D60001FD9384624F0010C05EBC471BCF1FE6F7D
:103D700001EB0C1102D8F0BCBDE8008124425CBF0D
:103D800001F5801E9EEAC47F02D4F0BCBDE800812C
:103D9000244238D4F0BCA1F1C041BDE8004100F09C
:103DA0002FBA4FEAD22242EA43524FEAD323A7FB6B
:103DB00002864FEAD02040EA415007FB03661EEA24
:103DC0000E0F4FEAD12105FB026658BFA6EB005645
:103DD000B6EB00564FEA520E4EEAC37E18EB0E0EBB
:103DE00056EB530EBDD518EB02085E417F1C55F112
:103DF0000005B6E74FF480154FF000074FF00006BE
:103E00004FF00008ADE7F0BC4FF0000001F1C041F9
:103E100001F00041BDE8008111EA0C1F0CEA131506
:103E200000D00CE013EA0C1F00F025804FF00000DA
:103E3000F0BC81EA030101F00041BDE80081F0BC63
:103E4000BDE8004181EA030100F0DAB9F0BCBDE849
:103E5000004170B500F086F9097EFC3E00F007B81D
:103E600081EA03014FF0000001F00041704781EA50
:103E7000030100F0C5B9F0BCBDE800414FF00000FF
:103E800021497047FFFDFBF9F7F5F4F2F0EEEDEB99
:103E9000E9E8E6E4E3E1E0DEDDDBDAD8D7D5D4D348
:103EA000D1D0CFCDCCCBCAC8C7C6C5C4C2C1C0BF94
:103EB000BEBDBCBBBAB9B8B7B6B5B4B3B2B1B0AF9A
:103EC000AEADACABAAA9A8A8A7A6A5A4A3A3A2A17E
:103ED000A09F9F9E9D9C9C9B9A9999989797969539
:103EE00095949393929191908F8F8E8E8D8C8C8BD5
:103EF0008B8A89898888878786858584848383825D
:103F0000828181800000FF070000F87F4FEA4103B3
:103F10004FEA5353A3F58063D3F11E03C8BFD3F117
:103F2000210C0CDD4FF0004242EAC12242EA50521D
:103F300032FA03FC8CEAE17CACEBE1707047102BA9
:103F4000C4BF0020704703F5787CBCF1FF3F04D06C
:103F50006FF0004282EA2100704770B500F002F96C
:103F60004992248000207047F2E710F0004248BFD9
:103F70004042B0FA80F310FA03F10AD0C3F11D03F6
:103F800003F580634FEA415002EB035202EBD1216B
:103F900070474FF00000704751EA030C17D41CF52E
:103FA000801F58BFBCF5801F00F10680994218BFE2
:103FB000704708BF9042704707D711F5801F58BF60
:103FC00013F5801F19D499427047894270471CF538
:103FD000801F08D5BCF5801FF7D58B4218BF7047EE
:103FE00008BF824270474FF4001C1CEB410F38BFE2
:103FF0001CEB430F01D28B42704770B500F0B2F852
:10400000922449004FF000514FF08053FFF71ABE41
:10401000DFF848C170B51CEA111E1EBF1CEA13155B
:104020009EEA0C0F95EA0C0F00F06F8081EA030402
:1040300023EA4C134EEAD47E21EA4C1141F480115C
:1040400043F48013AE44A1FB024CA0FB0365AEF128
:104050007F7E361955EB0C05A1FB034C4CF1000398
:10406000A0FB021C16EB0C06654153F1000309424C
:1040700018BF46F0010613F4007F0BD14FEA03315D
:104080004FEA0530340341EA155140EA16506FF00B
:1040900003020AE04FEAC3214FEAC520F40241EAD5
:1040A000555140EA56506FF0020202EB2E4201EBEE
:1040B000025585EACE710AD05FEA440C18BF24F09D
:1040C000004450F1000041F1000120EAD47040F2B8
:1040D000FE7C624500D270BDA84214BF4FF0804400
:1040E0004FF04044002E08BF0024BEF1806FA8BFEF
:1040F000A1F1C041BDE8704080F282804FF0000025
:1041000001F1C04101F0004170479EEA0C0F0CEA3A
:10411000131518BF95EA0C0F06D04FF0000081EA86
:10412000030E0EF0004170BD00F01CF88900013E46
:1041300000F007B800F009B84FEA430C5FEA5C5C96
:1041400008D081EA030100F05BB84FEA410C5FEA56
:104150005C5CF6D14FF00000014970470000FF079A
:104160000000F87F0EF1020E2EF0030E5EF8046BD5
:10417000364205D4012A43EB030515F5001F12D87A
:10418000012841EB010C1CF5001F0CD80ED14FEAA1
:10419000D17C15F5001F0CEB4C0C0CF1020C08BF88
:1041A0004CEBD37C04E04FF0080C01E04FEAD37CE9
:1041B0000CEB4C0526FA05F606F00706B6F1040CE2
:1041C00006D20EEB860CBDE870404CF0010C604747
:1041D000DFE80CF0090B02024FF000414FF0000045
:1041E000A1F5002170BD19461046012851EB0104CC
:1041F00018BFD4F5001484BF002001F0004170BD49
:104200000808A0F500114FEA3101704753EA010C8C
:1042100017D41CF5801F58BFBCF5801F00F1068025
:104220008B4218BF704708BF8242704707D713F50B
:10423000801F58BF11F5801F19D48B4270479B42D5
:1042400070471CF5801F08D5BCF5801FF7D5994233
:1042500018BF704708BF904270474FF4001C1CEB1A
:10426000430F38BF1CEB410F01D2994270470FB486
:104270000CBC03BCFFF7C1BE91EA030F10B581F07F
:1042800000413FF537AC83F0004300F009B800006F
:1042900010B591EA030F48BF83F000433FF52AAC05
:1042A000841A71EB030C07D212198CF0004C43EB0B
:1042B0000C03001B61EB0C01DFF8A4E14FEA115481
:1042C000A4EB135C1EEA430F18BF9EEA445F00F0A4
:1042D000B08023EA6E03524221EA0451C3EB6E031D
:1042E00038BF5B1EDCF1200E25D322FA0CFE10EB4A
:1042F0000E0043FA0CFE41EB0E01CCF1200E03FA46
:104300000EFE10EB0E0051F10001CCF1200E29D46D
:1043100012FA0EF201EB0451BDE8104058BF70478D
:10432000401C1CBFB2F1004F704700280CBF491C55
:1043300020F00100704712EB020E43EB030218BF9E
:104340004FF0010E4EEA4202ACF1200CDCF11E0EE1
:1043500054D943FA0CFE10EB0E0051F1FF31CCF1B1
:104360001E0ED5D50EF1010E12FA0EFE404141EBA4
:10437000010101EB445C5FEA5C5C10D910EBDE707C
:1043800001EB045138BFBEF1004FBDE8104018BF2B
:10439000704700280CBF491C20F00100704730D244
:1043A0004FEAD42C11F5001124F400641BD0B1FAAB
:1043B00081F20B3AA41AA41ED2F12003914030FAE4
:1043C00003F31943904001EBCC71002C01EB045135
:1043D000BDE81040A8BF704701F1C0414FF0000098
:1043E00001F000417047B0FA80F310FA03F100D1F8
:1043F00010BDE41A173C4805C90AE4E701EB045173
:1044000010BD491001EB0451BDE810404FEA3000E7
:1044100002E04FF0000170474A0008BF0042F8D0A8
:10442000B2F5001F28BF704701F000414FF00000B7
:1044300070479EEA445F07D011EA5E0FBDE8104066
:1044400004BF002100207047BDE8104070B5FFF7A1
:1044500089FE00BF40DFF63E83F000411046704702
:104460000000E0FF43004FEAD30C4FEA3C0C43400E
:104470001FBF40070CF1605113F0FE4F70471CF056
:10448000006F03D100200CF0004170470CF0004396
:1044900043EA507010B540EACC0000F027F800BFA6
:1044A000000000924FEA0001FFF7AABE4FF0004162
:1044B0004FF00000A1F500217047000010F000410E
:1044C00048BF4042B0FA80F310FA03F2C3F19D03F3
:1044D0000BD051EAC35101EB1220530638BF70478D
:1044E00000F1010008BF20F0010070470EF1020E3C
:1044F0002EF0030E5EF8044B244204D44FEA41022E
:10450000B2F17F4F11D84FEA4003B3F17F4F0CD87F
:104510000ED14FEAD07CB2F17F4F0CEB4C0C0CF17A
:10452000020C08BF4CEBD17C04E04FF0080C01E01A
:104530004FEAD17C0CEB4C0324FA03F404F007049B
:10454000B4F1040C06D20EEB840CBDE810404CF024
:10455000010C6047DFE80CF0070802024FF0004052
:10456000A0F5800010BD0846420018BFD2F180724D
:1045700088BF00F0004010BD0CF00F03092B08BFEE
:10458000082000F059800A2B0BD0082B18BF704769
:1045900008BF1CF0400F0AD04FF000004FF00001A0
:1045A00070471CF0400F18BF4FF0004070471CF0E0
:1045B000100F08D020F0704300F07F4242EAD30190
:1045C0004FEA4370704700F0604021F07F4242EABA
:1045D000000201F07F4040EA727070474FF0FF0C1C
:1045E0004CF4E06C1CEA11531CBF9CEA030C94458C
:1045F000C2BFDA4201EB02517047002B0DD0BCF173
:10460000000F0FD0002A01F00041A4BF41F0E041AB
:1046100041F07F614FF00000704701F000414FF022
:104620000000704750EA01334FF09B0C18BF4CF06C
:10463000806C7FF4FFAA70471CF4801F11D01CF41B
:10464000E02F03D06FEACC31490070474FF0405063
:10465000EFF3008222F0704242EA000282F3008807
:1046600070474FF000007047001C0140001C0140E3
:1046700000080140800040000100000070000020A0
:10468000B80000200000000000000000001C0140F5
:10469000001C01400008014000020001020000006F
:1046A00000010020B800002004000000010000000C
:1046B000010202030405060708090A0B0C0D0E0F80
:1046C00010100000000000000000010203040607B3
:1046D00008090000000001020304726F7373657221
:1046E00069616C5F6D7367732F5265717565737463
:1046F000506172616D0000000000000000000000C9
:10470000A12F0008912C0008B52C0008AD2C000842
:104710000000000000000000BD2F0008BD2C0008B4
:10472000F12C0008E92C0008000000000000000047
:10473000E32F00080D2D0008412E0008392E000837
:104740000000000000000000B5300008000000007C
:10475000512E0008492E0008000000000000000053
:10476000DD30000800000000612E0008592E00080E
:104770000000000000000000A13500089D35000881
:1047800095350008B9350008000000000000000061
:10479000B13600086D37000800000000000000007E
:1047A000000000005F310008312F0008792F000859
:1047B000712F000800000000000000009131000887
:1047C00000000000992F0008912F00083966313948
:1047D0003566383831323436666466613237393896
:1047E0006431643365656263613834610067656FA5
:1047F0006D657472795F6D7367732F547769737425
:10480000003461383432623635663431333038340E
:1048100064633262313066623438346561376631E0
:10482000370067656F6D657472795F6D7367732F9D
:10483000566563746F723300396630653938626467
:1048400061363539383139383664646635336166F6
:104850006137613430653439003131616264373336
:10486000316332353933333236316364363138337C
:1048700062643132643632393500726F7373657237
:1048800069616C5F6D7367732F4C6F670030616493
:1048900035316638386663343438393266386331D6
:1048A0003036383430373736343630303500726F82
:1048B0007373657269616C5F6D7367732F546F708A
:1048C0006963496E666F00004D65737361676520AB
:1048D00066726F6D206465766963652064726F70BF
:1048E0007065643A206D657373616765206C6172F1
:1048F000676572207468616E206275666665722EE7
:1049000000636437313636633734633535326333A9
:1049100031316662636332666535613762633238AE
:1049200039007374645F6D7367732F54696D65002C
:1049300039393263653861313638376365633863D6
:1049400038626438383365633733636134316431D6
:10495000007374645F6D7367732F537472696E674D
:1049600000000000884900080000002064000000EA
:104970006C010008EC49000864000020BC2700001E
:104980008801000851E8FFFF00000000000000005F
:104990000100000010000000000000000024F400EE
:1049A0000000000000000000000000000000000007
:1049B00014AE47E17A14DE3F000000000000F03F33
:1049C00000000000000000000000000000000000E7
:1049D00000000000000000000000000000000000D7
:0C49E000000000000000000000000000CB
:0400000508000131BD
:00000001FF
